{
  "contractName": "DoctorDetailContract",
  "abi": [
    {
      "inputs": [],
      "stateMutability": "nonpayable",
      "type": "constructor"
    },
    {
      "anonymous": false,
      "inputs": [
        {
          "components": [
            {
              "internalType": "string",
              "name": "name",
              "type": "string"
            },
            {
              "internalType": "string",
              "name": "age",
              "type": "string"
            },
            {
              "internalType": "string",
              "name": "email",
              "type": "string"
            },
            {
              "internalType": "string",
              "name": "qualification",
              "type": "string"
            },
            {
              "internalType": "string",
              "name": "hospital",
              "type": "string"
            },
            {
              "internalType": "string",
              "name": "specialist",
              "type": "string"
            },
            {
              "internalType": "string",
              "name": "phone",
              "type": "string"
            },
            {
              "internalType": "string",
              "name": "password",
              "type": "string"
            }
          ],
          "indexed": false,
          "internalType": "struct DoctorDetailContract.Doctor",
          "name": "_doctor",
          "type": "tuple"
        },
        {
          "indexed": false,
          "internalType": "address",
          "name": "account",
          "type": "address"
        }
      ],
      "name": "addDoctors",
      "type": "event"
    },
    {
      "anonymous": false,
      "inputs": [
        {
          "components": [
            {
              "internalType": "string",
              "name": "name",
              "type": "string"
            },
            {
              "internalType": "string",
              "name": "age",
              "type": "string"
            },
            {
              "internalType": "string",
              "name": "email",
              "type": "string"
            },
            {
              "internalType": "string",
              "name": "qualification",
              "type": "string"
            },
            {
              "internalType": "string",
              "name": "hospital",
              "type": "string"
            },
            {
              "internalType": "string",
              "name": "specialist",
              "type": "string"
            },
            {
              "internalType": "string",
              "name": "phone",
              "type": "string"
            },
            {
              "internalType": "string",
              "name": "password",
              "type": "string"
            }
          ],
          "indexed": false,
          "internalType": "struct DoctorDetailContract.Doctor",
          "name": "_doctor",
          "type": "tuple"
        },
        {
          "indexed": false,
          "internalType": "address",
          "name": "account",
          "type": "address"
        }
      ],
      "name": "deleteDoctors",
      "type": "event"
    },
    {
      "anonymous": false,
      "inputs": [
        {
          "indexed": false,
          "internalType": "uint256",
          "name": "_id",
          "type": "uint256"
        },
        {
          "components": [
            {
              "internalType": "string",
              "name": "name",
              "type": "string"
            },
            {
              "internalType": "string",
              "name": "age",
              "type": "string"
            },
            {
              "internalType": "string",
              "name": "email",
              "type": "string"
            },
            {
              "internalType": "string",
              "name": "qualification",
              "type": "string"
            },
            {
              "internalType": "string",
              "name": "hospital",
              "type": "string"
            },
            {
              "internalType": "string",
              "name": "specialist",
              "type": "string"
            },
            {
              "internalType": "string",
              "name": "phone",
              "type": "string"
            },
            {
              "internalType": "string",
              "name": "password",
              "type": "string"
            }
          ],
          "indexed": false,
          "internalType": "struct DoctorDetailContract.Doctor",
          "name": "_doctor",
          "type": "tuple"
        },
        {
          "indexed": false,
          "internalType": "address",
          "name": "account",
          "type": "address"
        }
      ],
      "name": "updateDoctors",
      "type": "event"
    },
    {
      "inputs": [
        {
          "internalType": "uint256",
          "name": "",
          "type": "uint256"
        }
      ],
      "name": "doctor",
      "outputs": [
        {
          "internalType": "string",
          "name": "name",
          "type": "string"
        },
        {
          "internalType": "string",
          "name": "age",
          "type": "string"
        },
        {
          "internalType": "string",
          "name": "email",
          "type": "string"
        },
        {
          "internalType": "string",
          "name": "qualification",
          "type": "string"
        },
        {
          "internalType": "string",
          "name": "hospital",
          "type": "string"
        },
        {
          "internalType": "string",
          "name": "specialist",
          "type": "string"
        },
        {
          "internalType": "string",
          "name": "phone",
          "type": "string"
        },
        {
          "internalType": "string",
          "name": "password",
          "type": "string"
        }
      ],
      "stateMutability": "view",
      "type": "function"
    },
    {
      "inputs": [],
      "name": "doctorCount",
      "outputs": [
        {
          "internalType": "uint256",
          "name": "",
          "type": "uint256"
        }
      ],
      "stateMutability": "view",
      "type": "function"
    },
    {
      "inputs": [
        {
          "components": [
            {
              "internalType": "string",
              "name": "name",
              "type": "string"
            },
            {
              "internalType": "string",
              "name": "age",
              "type": "string"
            },
            {
              "internalType": "string",
              "name": "email",
              "type": "string"
            },
            {
              "internalType": "string",
              "name": "qualification",
              "type": "string"
            },
            {
              "internalType": "string",
              "name": "hospital",
              "type": "string"
            },
            {
              "internalType": "string",
              "name": "specialist",
              "type": "string"
            },
            {
              "internalType": "string",
              "name": "phone",
              "type": "string"
            },
            {
              "internalType": "string",
              "name": "password",
              "type": "string"
            }
          ],
          "internalType": "struct DoctorDetailContract.Doctor",
          "name": "_doctor",
          "type": "tuple"
        }
      ],
      "name": "addDoctor",
      "outputs": [],
      "stateMutability": "nonpayable",
      "type": "function"
    },
    {
      "inputs": [
        {
          "internalType": "uint256",
          "name": "_id",
          "type": "uint256"
        },
        {
          "components": [
            {
              "internalType": "string",
              "name": "name",
              "type": "string"
            },
            {
              "internalType": "string",
              "name": "age",
              "type": "string"
            },
            {
              "internalType": "string",
              "name": "email",
              "type": "string"
            },
            {
              "internalType": "string",
              "name": "qualification",
              "type": "string"
            },
            {
              "internalType": "string",
              "name": "hospital",
              "type": "string"
            },
            {
              "internalType": "string",
              "name": "specialist",
              "type": "string"
            },
            {
              "internalType": "string",
              "name": "phone",
              "type": "string"
            },
            {
              "internalType": "string",
              "name": "password",
              "type": "string"
            }
          ],
          "internalType": "struct DoctorDetailContract.Doctor",
          "name": "_doctor",
          "type": "tuple"
        }
      ],
      "name": "updateDoctor",
      "outputs": [],
      "stateMutability": "nonpayable",
      "type": "function"
    },
    {
      "inputs": [
        {
          "internalType": "uint256",
          "name": "_id",
          "type": "uint256"
        }
      ],
      "name": "deleteDoctor",
      "outputs": [],
      "stateMutability": "nonpayable",
      "type": "function"
    },
    {
      "inputs": [],
      "name": "getDoctors",
      "outputs": [
        {
          "components": [
            {
              "internalType": "string",
              "name": "name",
              "type": "string"
            },
            {
              "internalType": "string",
              "name": "age",
              "type": "string"
            },
            {
              "internalType": "string",
              "name": "email",
              "type": "string"
            },
            {
              "internalType": "string",
              "name": "qualification",
              "type": "string"
            },
            {
              "internalType": "string",
              "name": "hospital",
              "type": "string"
            },
            {
              "internalType": "string",
              "name": "specialist",
              "type": "string"
            },
            {
              "internalType": "string",
              "name": "phone",
              "type": "string"
            },
            {
              "internalType": "string",
              "name": "password",
              "type": "string"
            }
          ],
          "internalType": "struct DoctorDetailContract.Doctor[]",
          "name": "",
          "type": "tuple[]"
        }
      ],
      "stateMutability": "view",
      "type": "function"
    }
  ],
  "bytecode": "0x6080806040523461001a57600080556113e090816100208239f35b600080fdfe6040608081526004908136101561001557600080fd5b6000917c010000000000000000000000000000000000000000000000000000000083350480630c96bf05146105db578063114db1fd1461045b5780631950e7b61461024157806378522bc414610224578063b13d5d94146101135763d7282bd51461007f57600080fd5b3461010f578160031936011261010f57803560243567ffffffffffffffff811161010b577f8575450a3fa7422490f243f0671d1aa084f2f0416addb2ebba60067a8489e37e926100d191369101610729565b906100e5826100df8361083d565b90610acc565b610100845192839283526060602084015260608301906109c5565b33858301520390a151f35b8480fd5b8280fd5b5082903461022057816003193601126102205760019283549167ffffffffffffffff831161020a5750838382516020610150818088020183610692565b85825283835280820195837fb10e2d527612073b26eecdfd717e6a320cf44b4afac2b0732d9fcbe2b7fa0cf6885b8383106101df57505050508451948186019282875251809352808601908284028701019693905b8382106101b25786880387f35b909192939483806101ce839a603f198b820301865289516109c5565b9997019594939190910191016101a5565b96600885829b996101f4859c98999a9c61114c565b815201920192019190989698979594939761017e565b83604160249260e060020a634e487b7102835252fd5b5080fd5b505034610220578160031936011261022057602091549051908152f35b508290346102205760203660031901126102205735906001548210156104585760019052600802906102947fb10e2d527612073b26eecdfd717e6a320cf44b4afac2b0732d9fcbe2b7fa0cf683016108cf565b906102c07fb10e2d527612073b26eecdfd717e6a320cf44b4afac2b0732d9fcbe2b7fa0cf784016108cf565b926102ec7fb10e2d527612073b26eecdfd717e6a320cf44b4afac2b0732d9fcbe2b7fa0cf882016108cf565b6103177fb10e2d527612073b26eecdfd717e6a320cf44b4afac2b0732d9fcbe2b7fa0cf983016108cf565b6103427fb10e2d527612073b26eecdfd717e6a320cf44b4afac2b0732d9fcbe2b7fa0cfa84016108cf565b9061036e7fb10e2d527612073b26eecdfd717e6a320cf44b4afac2b0732d9fcbe2b7fa0cfb85016108cf565b9261039a7fb10e2d527612073b26eecdfd717e6a320cf44b4afac2b0732d9fcbe2b7fa0cfc86016108cf565b947fb10e2d527612073b26eecdfd717e6a320cf44b4afac2b0732d9fcbe2b7fa0cfd016103c6906108cf565b958051988998610100808b528a016103dd91610974565b89810360208b01526103ee91610974565b90888203908901526103ff91610974565b868103606088015261041091610974565b858103608087015261042191610974565b84810360a086015261043291610974565b83810360c085015261044391610974565b82810360e084015261045491610974565b0390f35b80fd5b503461010f57602036600319011261010f5780359061048261047c8361083d565b5061114c565b918454600181146000146104f857505061049a611315565b83549081156104e2575060001901835581517f46dcc9f2e6c221b16e99f9939a7ef8f63edf625ac39810e1aad3958927a57c849181906104dc90339083611118565b0390a151f35b84601160249260e060020a634e487b7102835252fd5b600181106105c557610510610517916000190161083d565b509161083d565b6105b057818103610532575b505061052d611315565b61049a565b600780836105436105a995856111eb565b61055360018201600186016111eb565b61056360028201600286016111eb565b61057360038201600386016111eb565b6105818682018786016111eb565b61059160058201600586016111eb565b6105a160068201600686016111eb565b0191016111eb565b3880610523565b602486808560e060020a634e487b7102825252fd5b60248660118560e060020a634e487b7102835252fd5b503461010f57602036600319011261010f57803567ffffffffffffffff811161068e5761060b9036908301610729565b906001546801000000000000000081101561067857826100df826001610634940160015561083d565b83549060001982146104e25750600101835581517faed56e41599496da628e45c51519ddfc60a04539f237195873fef9354510b0cc9181906104dc90339083611118565b60248560418460e060020a634e487b7102835252fd5b8380fd5b90601f8019910116810190811067ffffffffffffffff8211176106b457604052565b60e060020a634e487b7102600052604160045260246000fd5b81601f820112156107245780359067ffffffffffffffff82116106b45760405192610702601f8401601f191660200185610692565b8284526020838301011161072457816000926020809301838601378301015290565b600080fd5b919091610100908181850312610724576040519182019067ffffffffffffffff91838110838211176106b45760405282948135838111610724578161076f9184016106cd565b8452602082013583811161072457816107899184016106cd565b6020850152604082013583811161072457816107a69184016106cd565b6040850152606082013583811161072457816107c39184016106cd565b6060850152608082013583811161072457816107e09184016106cd565b608085015260a082013583811161072457816107fd9184016106cd565b60a085015260c0820135838111610724578161081a9184016106cd565b60c085015260e08201359283116107245760e09261083892016106cd565b910152565b600154811015610878576008906001600052027fb10e2d527612073b26eecdfd717e6a320cf44b4afac2b0732d9fcbe2b7fa0cf60190600090565b60e060020a634e487b7102600052603260045260246000fd5b90600160028304921680156108c5575b60208310146108ac57565b60e060020a634e487b7102600052602260045260246000fd5b91607f16916108a1565b90604051918260008254926108e384610891565b908184526001948581169081600014610952575060011461090f575b505061090d92500383610692565b565b9093915060005260209081600020936000915b81831061093a57505061090d935082010138806108ff565b85548884018501529485019487945091830191610922565b91505061090d94506020925060ff1916828401521515810282010138806108ff565b91908251928382526000905b8482106109ad5750928060209394116109a0575b601f01601f1916010190565b6000838284010152610994565b90602090818082850101519082860101520190610980565b610a6d9160e0610a5c610a4a610a38610a26610a14610a026109f08951610100808b528a0190610974565b60208a015189820360208b0152610974565b604089015188820360408a0152610974565b60608801518782036060890152610974565b60808701518682036080880152610974565b60a086015185820360a0870152610974565b60c085015184820360c0860152610974565b9201519060e0818403910152610974565b90565b818110610a7b575050565b60008155600101610a70565b9190601f8111610a9657505050565b61090d92600052602060002090602080601f85010483019310610ac2575b601f60209101040190610a70565b9091508190610ab4565b906110ff5781519081519167ffffffffffffffff928381116106b457610afc81610af68554610891565b85610a87565b806020601f938483116001146110985760009261108d575b5050816002029160080260020a6000190419161782555b600180830160208601518051908682116106b4578190610b5582610b4f8654610891565b86610a87565b60209086831160011461102457600092611019575b5050816002029160080260020a6000190419161790555b60029283810160408701518051908782116106b4578190610ba682610b4f8654610891565b602090878311600114610fb157600092610fa6575b505060088202870a6000190419169086021790555b6003810160608701518051908782116106b4578190610bf382610b4f8654610891565b602090878311600114610f3e57600092610f33575b505060088202870a6000190419169086021790555b6004810160808701518051908782116106b4578190610c4082610b4f8654610891565b602090878311600114610ecb57600092610ec0575b505060088202870a6000190419169086021790555b6005810160a08701518051908782116106b4578190610c8d82610b4f8654610891565b602090878311600114610e5857600092610e4d575b505060088202870a6000190419169086021790555b6006810160c08701518051908782116106b457610cd882610af68554610891565b602090868311600114610dd95791806007949260e09694600092610dce575b505060088202890a6000190419169088021790555b019501519081519485116106b457610d2e85610d288854610891565b88610a87565b602092808611600114610d6a57505090839291600093610d5f575b505082810292600802900a600019041916179055565b015191503880610d49565b909492601f198416928760005284826000209460005b89828210610db557505010610d9a575b5050505002019055565b0151908316600802840a600019041916905538808080610d90565b8486015188559096019560209485019488935001610d80565b015190503880610cf7565b9185928892601f1983169186600052816000209260005b818110610e325750916007979593918560e09a98969410610e18575b50505002019055610d0c565b01516008838c1602840a6000190419169055388080610e0c565b8383015185558a978d97509094019360209384019301610df0565b015190503880610ca2565b869350889291601f1983169186600052816000209260005b818110610ea557508411610e8b575b50505002019055610cb7565b01516008838a1602840a6000190419169055388080610e7f565b8383015185558a978d97509094019360209384019301610e70565b015190503880610c55565b869350889291601f1983169186600052816000209260005b818110610f1857508411610efe575b50505002019055610c6a565b01516008838a1602840a6000190419169055388080610ef2565b8383015185558a978d97509094019360209384019301610ee3565b015190503880610c08565b869350889291601f1983169186600052816000209260005b818110610f8b57508411610f71575b50505002019055610c1d565b01516008838a1602840a6000190419169055388080610f65565b8383015185558a978d97509094019360209384019301610f56565b015190503880610bbb565b869350889291601f1983169186600052816000209260005b818110610ffe57508411610fe4575b50505002019055610bd0565b01516008838a1602840a6000190419169055388080610fd8565b8383015185558a978d97509094019360209384019301610fc9565b015190503880610b6a565b9250908491601f1982169085600052806000209160005b81811061107557509483600295961061105b575b50505002019055610b81565b0151600883891602840a600019041916905538808061104f565b8287015184558895909301926020928301920161103b565b015190503880610b14565b60008681528281209350601f198516905b8181106110e7575091600293918560019694106110cd575b50505002018255610b2b565b0151600883871602840a60001904191690553880806110c1565b929360206001819287860151815501950193016110a9565b60e060020a634e487b7102600052600060045260246000fd5b9073ffffffffffffffffffffffffffffffffffffffff6111456020929594956040855260408501906109c5565b9416910152565b90604051610100810181811067ffffffffffffffff8211176106b45760405260e06108386007839561117d816108cf565b855261118b600182016108cf565b602086015261119c600282016108cf565b60408601526111ad600382016108cf565b60608601526111be600482016108cf565b60808601526111cf600582016108cf565b60a08601526111e0600682016108cf565b60c0860152016108cf565b908082146112c5576111fd8154610891565b9067ffffffffffffffff82116106b457819061121d82610b4f8654610891565b600090601f83116001146112565760009261124b575b5050816002029160080260020a600019041916179055565b015490503880611233565b81526020808220858352818320935090601f1985169083905b8282106112ac5750509160029391856001969410611291575b50505002019055565b01546008601f841602840a6000190419169055388080611288565b849581929585015481556001809101960194019061126f565b5050565b6112d38154610891565b90816112dd575050565b81601f600093116001146112ef575055565b61130b9082845260016020601f81872093010482019101610a70565b8160208120915555565b6001548015611391576000190161132b8161083d565b6110ff5760078161133e61138c936112c9565b61134a600182016112c9565b611356600282016112c9565b611362600382016112c9565b61136e600482016112c9565b61137a600582016112c9565b611386600682016112c9565b016112c9565b600155565b60e060020a634e487b7102600052603160045260246000fdfea264697066735822122003f8124a2308cc758dd67d9efaf644c966727114ecfcab6ef6f508ac9066435764736f6c634300080f0033",
  "immutableReferences": {},
  "source": "// SPDX-License-Identifier: MIT\npragma solidity >=0.4.22 <0.9.0;\n\ncontract DoctorDetailContract {\n    uint256 public doctorCount = 0;\n\n    constructor() {}\n\n    struct Doctor {\n        string name;\n        string age;\n        string email;\n        string qualification;\n        string hospital;\n        string specialist;\n        string phone;\n        string password;\n        \n    }\n\n    Doctor[] public doctor;\n\n    event addDoctors(Doctor _doctor, address account);\n\n    function addDoctor(Doctor memory _doctor) public {\n        doctor.push(_doctor);\n        doctorCount++;\n        emit addDoctors(_doctor, msg.sender);\n    }\n\n    event updateDoctors(uint256 _id, Doctor _doctor, address account);\n\n    function updateDoctor(uint256 _id, Doctor memory _doctor) public {\n        doctor[_id] = _doctor;\n\n        emit updateDoctors(_id, _doctor, msg.sender);\n    }\n\n    event deleteDoctors(Doctor _doctor, address account);\n\n    function deleteDoctor(uint256 _id) public {\n        Doctor memory u = doctor[_id];\n        if (doctorCount == 1) {\n            doctor.pop();\n        } else {\n            doctor[_id] = doctor[doctorCount - 1];\n            doctor.pop();\n        }\n        doctorCount--;\n\n        emit deleteDoctors(u, msg.sender);\n    }\n\n    function getDoctors() public view returns (Doctor[] memory) {\n        return doctor;\n    }\n}\n",
  "sourcePath": "/mnt/hdd/projects/codeshift/sc/contracts/DoctorDetails.sol",
  "compiler": {
    "name": "solc",
    "version": "0.8.15+commit.e14f2714.Emscripten.clang"
  },
  "schemaVersion": "3.4.16",
  "updatedAt": "2023-11-09T13:14:48.392Z",
  "devdoc": {
    "kind": "dev",
    "methods": {},
    "version": 1
  },
  "userdoc": {
    "kind": "user",
    "methods": {},
    "version": 1
  }
}