{
  "contractName": "PrescriptionDetailContract",
  "abi": [
    {
      "inputs": [],
      "stateMutability": "nonpayable",
      "type": "constructor"
    },
    {
      "anonymous": false,
      "inputs": [
        {
          "components": [
            {
              "internalType": "string",
              "name": "name",
              "type": "string"
            },
            {
              "internalType": "string",
              "name": "email",
              "type": "string"
            },
            {
              "internalType": "string",
              "name": "comments",
              "type": "string"
            },
            {
              "internalType": "string",
              "name": "disease",
              "type": "string"
            },
            {
              "internalType": "string",
              "name": "prescription",
              "type": "string"
            }
          ],
          "indexed": false,
          "internalType": "struct PrescriptionDetailContract.Prescription",
          "name": "_prescription",
          "type": "tuple"
        },
        {
          "indexed": false,
          "internalType": "address",
          "name": "account",
          "type": "address"
        }
      ],
      "name": "addPrescriptions",
      "type": "event"
    },
    {
      "anonymous": false,
      "inputs": [
        {
          "indexed": false,
          "internalType": "uint256",
          "name": "_id",
          "type": "uint256"
        },
        {
          "components": [
            {
              "internalType": "string",
              "name": "name",
              "type": "string"
            },
            {
              "internalType": "string",
              "name": "email",
              "type": "string"
            },
            {
              "internalType": "string",
              "name": "comments",
              "type": "string"
            },
            {
              "internalType": "string",
              "name": "disease",
              "type": "string"
            },
            {
              "internalType": "string",
              "name": "prescription",
              "type": "string"
            }
          ],
          "indexed": false,
          "internalType": "struct PrescriptionDetailContract.Prescription",
          "name": "_prescription",
          "type": "tuple"
        },
        {
          "indexed": false,
          "internalType": "address",
          "name": "account",
          "type": "address"
        }
      ],
      "name": "updatePrescriptions",
      "type": "event"
    },
    {
      "inputs": [
        {
          "internalType": "uint256",
          "name": "",
          "type": "uint256"
        }
      ],
      "name": "prescription",
      "outputs": [
        {
          "internalType": "string",
          "name": "name",
          "type": "string"
        },
        {
          "internalType": "string",
          "name": "email",
          "type": "string"
        },
        {
          "internalType": "string",
          "name": "comments",
          "type": "string"
        },
        {
          "internalType": "string",
          "name": "disease",
          "type": "string"
        },
        {
          "internalType": "string",
          "name": "prescription",
          "type": "string"
        }
      ],
      "stateMutability": "view",
      "type": "function"
    },
    {
      "inputs": [],
      "name": "prescriptionCount",
      "outputs": [
        {
          "internalType": "uint256",
          "name": "",
          "type": "uint256"
        }
      ],
      "stateMutability": "view",
      "type": "function"
    },
    {
      "inputs": [
        {
          "components": [
            {
              "internalType": "string",
              "name": "name",
              "type": "string"
            },
            {
              "internalType": "string",
              "name": "email",
              "type": "string"
            },
            {
              "internalType": "string",
              "name": "comments",
              "type": "string"
            },
            {
              "internalType": "string",
              "name": "disease",
              "type": "string"
            },
            {
              "internalType": "string",
              "name": "prescription",
              "type": "string"
            }
          ],
          "internalType": "struct PrescriptionDetailContract.Prescription",
          "name": "_prescription",
          "type": "tuple"
        }
      ],
      "name": "addPrescription",
      "outputs": [],
      "stateMutability": "nonpayable",
      "type": "function"
    },
    {
      "inputs": [
        {
          "internalType": "uint256",
          "name": "_id",
          "type": "uint256"
        },
        {
          "components": [
            {
              "internalType": "string",
              "name": "name",
              "type": "string"
            },
            {
              "internalType": "string",
              "name": "email",
              "type": "string"
            },
            {
              "internalType": "string",
              "name": "comments",
              "type": "string"
            },
            {
              "internalType": "string",
              "name": "disease",
              "type": "string"
            },
            {
              "internalType": "string",
              "name": "prescription",
              "type": "string"
            }
          ],
          "internalType": "struct PrescriptionDetailContract.Prescription",
          "name": "_prescription",
          "type": "tuple"
        }
      ],
      "name": "updatePrescription",
      "outputs": [],
      "stateMutability": "nonpayable",
      "type": "function"
    },
    {
      "inputs": [],
      "name": "getDoctors",
      "outputs": [
        {
          "components": [
            {
              "internalType": "string",
              "name": "name",
              "type": "string"
            },
            {
              "internalType": "string",
              "name": "email",
              "type": "string"
            },
            {
              "internalType": "string",
              "name": "comments",
              "type": "string"
            },
            {
              "internalType": "string",
              "name": "disease",
              "type": "string"
            },
            {
              "internalType": "string",
              "name": "prescription",
              "type": "string"
            }
          ],
          "internalType": "struct PrescriptionDetailContract.Prescription[]",
          "name": "",
          "type": "tuple[]"
        }
      ],
      "stateMutability": "view",
      "type": "function"
    }
  ],
  "bytecode": "0x6080806040523461001a5760008055610e0690816100208239f35b600080fdfe6040608081526004908136101561001557600080fd5b6000917c01000000000000000000000000000000000000000000000000000000008335048063287eda0514610389578063b13d5d9414610206578063b6558498146101e5578063b82bdfc51461015a5763f898dcad1461007457600080fd5b3461015657602036600319011261015657803567ffffffffffffffff8111610152576100a39036908301610771565b906001546801000000000000000081101561013c57826100cc8260016100d294016001556104e6565b9061082c565b83549060001982146101265750600101835581518281527ff71cb0b1b6455ebfc84970548e56ca3db684b23e5fda1b123def764f2e5ca01c91819061011a90828601906106a9565b3360208301520390a151f35b84601160249260e060020a634e487b7102835252fd5b60248560418460e060020a634e487b7102835252fd5b8380fd5b8280fd5b5034610156578160031936011261015657803560243567ffffffffffffffff81116101e1577fd4183ff38929c512f0a3793597cc983bd500038eef270d577268575ba166b6a2926101ad91369101610771565b906101bb826100cc836104e6565b6101d6845192839283526060602084015260608301906106a9565b33858301520390a151f35b8480fd5b505034610202578160031936011261020257602091549051908152f35b5080fd5b50919034610202578160031936011261020257600192835467ffffffffffffffff92838211610373579184908692845191602091610248838083020185610578565b80845282840180988787527fb10e2d527612073b26eecdfd717e6a320cf44b4afac2b0732d9fcbe2b7fa0cf69087925b8484106102db575050505050508451948186019282875251809352808601908284028701019693905b8382106102ae5786880387f35b909192939483806102ca839a603f198b820301865289516106a9565b9997019594939190910191016102a1565b8a9697989a9b999b5160a081018181108482111761035d578d926005928b928b52610305876105b3565b81526103128588016105b3565b83820152610322600288016105b3565b8b820152610332600388016105b3565b60608201526103428a88016105b3565b60808201528152019301930192919a989a9997969599610278565b60248d60418a60e060020a634e487b7102835252fd5b60248560418560e060020a634e487b7102835252fd5b503461015657602036600319011261015657356001548110156101565760056104e29160016104ab955202916104d46103e3847fb10e2d527612073b26eecdfd717e6a320cf44b4afac2b0732d9fcbe2b7fa0cf6016105b3565b936104c66104127fb10e2d527612073b26eecdfd717e6a320cf44b4afac2b0732d9fcbe2b7fa0cf783016105b3565b9361043e7fb10e2d527612073b26eecdfd717e6a320cf44b4afac2b0732d9fcbe2b7fa0cf884016105b3565b6104b96104977fb10e2d527612073b26eecdfd717e6a320cf44b4afac2b0732d9fcbe2b7fa0cfa6104907fb10e2d527612073b26eecdfd717e6a320cf44b4afac2b0732d9fcbe2b7fa0cf988016105b3565b96016105b3565b9683519a8b9a60a08c5260a08c0190610658565b908a820360208c0152610658565b9188830390890152610658565b908582036060870152610658565b908382036080850152610658565b0390f35b600154811015610521576005906001600052027fb10e2d527612073b26eecdfd717e6a320cf44b4afac2b0732d9fcbe2b7fa0cf60190600090565b60e060020a634e487b7102600052603260045260246000fd5b906001600283049216801561056e575b602083101461055557565b60e060020a634e487b7102600052602260045260246000fd5b91607f169161054a565b90601f8019910116810190811067ffffffffffffffff82111761059a57604052565b60e060020a634e487b7102600052604160045260246000fd5b90604051918260008254926105c78461053a565b90818452600194858116908160001461063657506001146105f3575b50506105f192500383610578565b565b9093915060005260209081600020936000915b81831061061e5750506105f1935082010138806105e3565b85548884018501529485019487945091830191610606565b9150506105f194506020925060ff1916828401521515810282010138806105e3565b91908251928382526000905b848210610691575092806020939411610684575b601f01601f1916010190565b6000838284010152610678565b90602090818082850101519082860101520190610664565b6107129160806107016106ef6106dd6106cb865160a0875260a0870190610658565b60208701518682036020880152610658565b60408601518582036040870152610658565b60608501518482036060860152610658565b920151906080818403910152610658565b90565b81601f8201121561076c5780359067ffffffffffffffff821161059a576040519261074a601f8401601f191660200185610578565b8284526020838301011161076c57816000926020809301838601378301015290565b600080fd5b91909160a08184031261076c576040519067ffffffffffffffff9060a083018281118482101761059a576040528294813583811161076c57816107b5918401610715565b8452602082013583811161076c57816107cf918401610715565b6020850152604082013583811161076c57816107ec918401610715565b6040850152606082013583811161076c5781610809918401610715565b6060850152608082013592831161076c576080926108279201610715565b910152565b90610db75781519081519167ffffffffffffffff9283811161059a5780610853845461053a565b92601f93848111610d64575b50602090848311600114610cfd57600092610cf2575b5050816002029160080260020a6000190419161782555b6001808301602086015180519086821161059a5781906108ac845461053a565b868111610c9e575b50602090868311600114610c3557600092610c2a575b5050816002029160080260020a6000190419161790555b600292838101604087015180519087821161059a578190610902845461053a565b878111610bd6575b50602090878311600114610b6e57600092610b63575b505060088202870a6000190419169086021790555b60038101606087015180519087821161059a57610952835461053a565b868111610b19575b50602090868311600114610aa55791806004949260809694600092610a9a575b505060088202890a6000190419169088021790555b0195015190815194851161059a576109a7865461053a565b838111610a50575b506020928086116001146109ec575050908392916000936109e1575b505082810292600802900a600019041916179055565b0151915038806109cb565b909492601f198416928760005284826000209460005b89828210610a3757505010610a1c575b5050505002019055565b0151908316600802840a600019041916905538808080610a12565b8486015188559096019560209485019488935001610a02565b8660005260206000208460208189010482019260208910610a90575b6020910104019082905b828110610a845750506109af565b60008155018290610a76565b9192508291610a6c565b01519050388061097a565b9185928892601f1983169186600052816000209260005b818110610afe5750916004979593918560809a98969410610ae4575b5050500201905561098f565b01516008838c1602840a6000190419169055388080610ad8565b8383015185558a978d97509094019360209384019301610abc565b8360005260206000208760208186010482019260208610610b59575b6020910104019086905b828110610b4d57505061095a565b60008155018690610b3f565b9192508291610b35565b015190503880610920565b869350889291601f1983169186600052816000209260005b818110610bbb57508411610ba1575b50505002019055610935565b01516008838a1602840a6000190419169055388080610b95565b8383015185558a978d97509094019360209384019301610b86565b9091508360005260206000208760208186010482019260208610610c20575b916020899287969594010401915b828110610c1157505061090a565b60008155859450889101610c03565b9192508291610bf5565b0151905038806108ca565b9250908491601f1982169085600052806000209160005b818110610c86575094836002959610610c6c575b505050020190556108e1565b0151600883891602840a6000190419169055388080610c60565b82870151845588959093019260209283019201610c4c565b9091508360005260206000208660208186010482019260208610610ce8575b916020889287969594010401915b828110610cd95750506108b4565b60008155859450879101610ccb565b9192508291610cbd565b015190503880610875565b60008681528281209350601f198516905b818110610d4c57509160029391856001969410610d32575b5050500201825561088c565b0151600883871602840a6000190419169055388080610d26565b92936020600181928786015181550195019301610d0e565b9091506000858152602081208560208187010482019360208710610dad575b869594939291602091010401915b828110610d9f57505061085f565b818155859450600101610d91565b9193508391610d83565b60e060020a634e487b7102600052600060045260246000fdfea2646970667358221220539db206f76b795cc6b1c502d424b980cac9533514f909e8a1b5849ab2d997dd64736f6c634300080f0033",
  "immutableReferences": {},
  "source": "// SPDX-License-Identifier: MIT\npragma solidity >=0.4.22 <0.9.0;\n\ncontract PrescriptionDetailContract {\n    uint256 public prescriptionCount = 0;\n\n    constructor() {}\n\n    struct Prescription {\n        string name;\n        string email;\n        string comments;\n        string disease;\n        string prescription;        \n    }\n\n    Prescription[] public prescription;\n\n    event addPrescriptions(Prescription _prescription, address account);\n\n    function addPrescription(Prescription memory _prescription) public {\n        prescription.push(_prescription);\n        prescriptionCount++;\n        emit addPrescriptions(_prescription, msg.sender);\n    }\n\n    event updatePrescriptions(uint256 _id, Prescription _prescription, address account);\n\n    function updatePrescription(uint256 _id, Prescription memory _prescription) public {\n        prescription[_id] = _prescription;\n\n        emit updatePrescriptions(_id, _prescription, msg.sender);\n    }\n\n    function getDoctors() public view returns (Prescription[] memory) {\n        return prescription;\n    }\n}\n",
  "sourcePath": "/mnt/hdd/projects/codeshift/sc/contracts/PrescriptionDetails.sol",
  "compiler": {
    "name": "solc",
    "version": "0.8.15+commit.e14f2714.Emscripten.clang"
  },
  "schemaVersion": "3.4.16",
  "updatedAt": "2023-11-09T13:14:48.397Z",
  "devdoc": {
    "kind": "dev",
    "methods": {},
    "version": 1
  },
  "userdoc": {
    "kind": "user",
    "methods": {},
    "version": 1
  }
}